:020000040000FA
:10700000D83C002031720000017D00003B7200007E
:107010000000000000000000000000000000000070
:107020000000000000000000000000000D7D0000D6
:107030000000000000000000157D00001D7D000024
:10704000257D00002D7D0000357D00003D7D000088
:10705000457D00004D7D0000557D00005D7D0000F8
:10706000657D00006D7D0000757D00007D7D000068
:10707000857D00008D7D0000957D00009D7D0000D8
:10708000A57D0000AD7D0000B57D0000BD7D000048
:10709000C57D0000CD7D0000D57D0000DD7D0000B8
:1070A000E57D0000ED7D000000F002F800F079F8C9
:1070B00012A030C8083824182D18AC4201D100F0B5
:1070C00070F80FCCA246AB460CA730CF2D1B083F63
:1070D0003F197C427F1E54442D090426F441641E4E
:1070E000AC4201D300F05DF80126334200D0FB1A18
:1070F0003343984754465D46DFE70000B83C010043
:10710000D83C010070470000002300240025002621
:10711000103A01D378C1FBD8520700D330C100D553
:107120000B60704710B5692902D10DF065FF10BDE5
:10713000642902D10DF060FF10BD752902D10DF058
:107140005BFF10BD6F2902D10DF0EAFF10BD782959
:1071500002D10EF00DF810BD0368DB0901D38023C6
:107160001943632902D10EF09FFF10BD732902D18C
:107170000EF0A2FF10BDE32902D10EF0C0FF10BD3A
:10718000002010BD1FB50EF029F90EF005FF040018
:10719000002000210FF02EFA401C60601FBD10B5CA
:1071A00010BD0FF0C3F81146FFF7ECFF06F006FC28
:1071B0000FF0EAF803B4FFF7F2FF03BC06F0FDFBA3
:1071C00030B40C490C684A6823681068C018106015
:1071D000241D121D8C4207D28A4208D20C604A60DC
:1071E00030BC4000400870470C00DC3CF6E70A0069
:1071F000DC3AF3E72403002070B505460C4616463A
:1072000002E00FCC0FC5103E102EFAD2082E02D38A
:1072100003CC03C5083E042E07D301CC01C5361F9D
:1072200003E021782970641C6D1C761EF9D270BDB4
:107230000748804707480047FEE7FEE7FEE7FEE70E
:10724000FEE7FEE704480549054A064B7047000083
:107250008D720000A9700000D8300020D83C0020BA
:10726000D8340020D8340020014800687047C04658
:107270008C030020014840687047C0468C03002002
:10728000014800687047C04620100041B0B5104862
:107290000168104A116010490A46103A40681060AF
:1072A0000020C8600868012404400D680A68086866
:1072B0008002810E094848439104890E0FF097F827
:1072C000A907C90F0919C84005490860B0BDC046E3
:1072D000B8FD0300101200411410004100127A00A2
:1072E0008C03002070B50C461E490B681E4D2B60A8
:1072F0001E4E3346103B49681960411E4B424B41BC
:10730000F360012800D01A4C104621460FF06FF8A8
:107310000106490E15D00021B16001252902800621
:10732000800A401830603068284085403068800707
:10733000C00F854030688004810E30688002800E66
:1073400005E00121B1600B4830600D4608460A4E49
:10735000746060430FF04BF829460FF048F8306036
:1073600070BDC046B8FD030010120041141000416A
:1073700000127A00000102008C03002070B50C4658
:10738000411E4B424B41194EF360012800D0C44CC2
:10739000104621460FF02BF80106490E15D00021AA
:1073A000B160012529028006800A401830603068EB
:1073B0002840854030688007C00F854030688004D1
:1073C000810E30688002800E05E00121B16008481E
:1073D00030600D460846074E746060430FF007F8B2
:1073E00029460FF004F8306070BDC046141000410B
:1073F000000102008C030020002804D0032041215A
:10740000090608607047012041210906086070479D
:10741000014908607047C04604000041014801214D
:1074200001607047080000410148006880B2704761
:107430000C000041411E884140000149086070472E
:107440001000004102480068C0B2411E88417047E8
:107450001000004101480121016070471000004107
:1074600041200006012101607047412000060321F0
:1074700001600021016170470E49884207DC104914
:1074800088420ED00F4988420AD1104806E00A49C6
:1074900088420AD00949884202D10B480121016281
:1074A00070470A48012101607047074801210160C7
:1074B0007047C046FF1F00400020004020200040D1
:1074C000001000402010004080200040801000404C
:1074D000104988420ADC1249884212D01149884278
:1074E00017D10120C0431149086270470A498842F8
:1074F0000BD00A4988420CD10120C0430A490862D6
:1075000070470120C043094902E00120C0430649F9
:1075100008607047FF1F004000200040202000400E
:1075200000100040201000408020004080100040EB
:107530008168802291438160002101602022826065
:1075400081617047816880229143816070478268C1
:1075500080239A4382600A6802604A6892018368C5
:1075600013438A6892001A43CB685B00134309698E
:107570001943EF220A4082607047491E4A424A413D
:107580005101826820239A4351188160704701217C
:10759000C16070474069C0B2704780688006C00F04
:1075A0007047816880220A43826070470068704794
:1075B000016070474068704780687047816070471D
:1075C0000069704740697047806970478161704702
:1075D00000218181602103221206E1235B02036006
:1075E000416082607047016B0122914301637047E3
:1075F000F0B581B00D460446006B0127B843206307
:10760000264EFFF73DFE002803D03760FFF72CFE23
:1076100002E00220306022487168C8400EF0B8FCD9
:107620000646286800010EF0B3FC014630460EF015
:10763000BBFB06460EF068FC60620EF0A9FC01463A
:1076400030460FF08BF88521C9050FF02FF80EF0AA
:1076500081FB0026134B32460EF028FB0EF056FB42
:10766000A062A888E988014328890843E16AEE22DC
:107670009143E26A0A430243E2626889A9890143AD
:10768000206B094A0240206B104308432063206BA3
:1076900038432063304601B0F0BDC0465011004170
:1076A00000127A000000E03FFE3CFFFF10B5C36A05
:1076B00010241C43C462072313404907890EC918CC
:1076C000416310BDC16A10229143C16270470160DD
:1076D0007047006880B27047C16A01220A43C262E3
:1076E000704740680840411E8841704741607047BC
:1076F00080690840411E88417047002A03D0826B90
:107700000A4382637047826B8A4382637047006CCE
:107710000840411E88417047426C0A4342647047EA
:107720007047C04610B504460B480168022902D0D4
:107730000068032802D1FFF79DFD01E0FFF794FDEB
:1077400021460EF054FE0549886008680322024372
:107750000A60002010BDC0463010004108600040A3
:1077600010B5044608480168022902D000680328C1
:1077700002D1FFF77FFD01E0FFF776FD21460EF015
:1077800036FE0249086010BD301000411060004014
:1077900007490A68D20708D00A68D20705D00A68E4
:1077A000D20702D00A68D207F3D1091F08607047D8
:1077B000046000400148006880B2704700600040EB
:1077C000024909680840411E884170470460004032
:1077D000054A002903D01168014311607047116800
:1077E000814311607047C04608600040054A002987
:1077F00003D0116801431160704711688143116023
:107800007047C04608600040024909680840411EB0
:10781000884170470C60004002490A6802430A60D0
:107820007047C0460C60004001608269120708D5AD
:107830008269120705D58269120702D5826912078B
:10784000F3D4084670470A7801E04A78491C002AB8
:107850000DD0026082691207F7D582691207F4D54C
:1078600082691207F1D582691207F3D4EDE77047F8
:107870008169C90608D58169C90605D58169C90626
:1078800002D58169C906F3D40068C0B27047C0460A
:1078900007490A68D20708D00A68D20705D00A68E3
:1078A000D20702D00A68D207F3D1091F08607047D7
:1078B000046000400178002915D00B4A05E0101F34
:1078C0000160581C597800290DD003461068C00784
:1078D000F5D01068C007F2D01068C007EFD010686C
:1078E000C007F3D1EBE77047046000400848016827
:1078F000890708D40168890705D40168890702D47B
:1079000001688907F3D5001F0068C0B27047C04600
:1079100004600040044805490160012080070021FF
:10792000CA43026081607047000C004051E5CC1AE8
:107930000148024901607047000C004051E5CC1A33
:10794000B0B50849084A0A60084A13680124A343ED
:1079500013601346083B05681D60406840001060D6
:107960000C60B0BD000C004051E5CC1A080000408E
:1079700004480549016005480168012291430160FE
:107980007047C046000C004051E5CC1A080000408A
:107990000148012101607047000C0040044805497E
:1079A000016005490A6801231A430A6003607047B1
:1079B000000C004051E5CC1A080000400349044A7D
:1079C0000A600122930718600A607047000C0040AB
:1079D00051E5CC1A034804490160044901220A60B8
:1079E00002607047000C004051E5CC1A0C000040CA
:1079F00001480068C0B270471400004001480068A8
:107A0000C0B270471000004001480068C0B2704723
:107A10001400004001208007006870470349044AB1
:107A20000A600122930718600A607047000C00404A
:107A300051E5CC1A014800687047C0460400004078
:107A4000014800687047C046080000400349044AE6
:107A50000A60044A1060012008607047000C004072
:107A600051E5CC1A0800004070B582B014460D46AE
:107A700001A900260E8009490DF048FE002803D018
:107A80002660012002B070BD01AE284631460DF0DF
:107A900029F836882660012002B070BD3BA10100A4
:107AA000B0B514460D4606490DF030FE002801D051
:107AB0000120B0BD284621460DF014F80120B0BDCC
:107AC0003BA10100B0B582B01C4601AB00251D8072
:107AD000891C00F009F8002803D001A80088206064
:107AE0000225284602B0B0BDF0B581B01C4615464F
:107AF0000E46074613A10DF009FE00280ED015A171
:107B000038460DF003FE00280CD017A138460DF0C2
:107B1000FDFD00280AD0002001B0F0BD30460DF078
:107B2000A5F806E030460DF0C7F902E030460DF04A
:107B3000C5F9024611A128460DF0E6F92080012082
:107B400001B0F0BD7365745F646576696E666F2E13
:107B5000636769007365745F6465767265736574E5
:107B60002E636769000000007365745F6465766664
:107B7000616372657365742E636769002564000034
:107B8000B0B582B004462FA101AA05F083F8002801
:107B900009D00A2105F083F90106090F07D0FF2556
:107BA00068B202B0B0BD002568B202B0B0BDC5B2C7
:107BB00025A101AA204605F06DF8002814D00A215D
:107BC00005F06DF9C1B2052D11D0042D1AD0002D8C
:107BD000E6D11120800600291FD0012100F0D4F940
:107BE000002568B202B0B0BD0021052DEDD11120F5
:107BF0008006002918D0202100F0C6F9052568B2BA
:107C000002B0B0BD11208006002914D0102100F070
:107C1000BBF9042568B202B0B0BD012100F0C1F982
:107C2000002568B202B0B0BD202100F0BAF90525E8
:107C300068B202B0B0BD102100F0B3F9042568B2FB
:107C400002B0B0BD70696E0076616C00F0B589B0AD
:107C500008F0BAFC054603AEB01D009003F0F2FF39
:107C600034460E34204603F0F9FF37460A373846CB
:107C700004F000F830461230019004F007F829466D
:107C8000173106220296304608F07EFE28461D3047
:107C900004260099324608F07BFE28462130214612
:107CA000324608F075FE284625303946324608F03F
:107CB0006FFE284665300199324608F069FE632060
:107CC000285C002801D0022000E00120029988757C
:107CD000002001F061FF09B0F0BD7047704700005F
:107CE00010B50EF059F9001D10BD00BF09E90000E4
:107CF000704770477047704700000400080000019B
:107D000080B505F013FE80BD0000000080B505F0D1
:107D10000FFE80BD80B505F00CFE80BD80B505F07E
:107D200009FE80BD80B505F009FE80BD80B505F077
:107D300006FE80BD80B505F003FE80BD80B505F070
:107D400007FE80BD80B505F00BFE80BD80B505F057
:107D500008FE80BD80B505F005FE80BD80B505F04C
:107D600002FE80BD80B505F0FFFD80BD80B505F049
:107D7000FCFD80BD80B505F0F9FD80BD80B505F046
:107D8000F6FD80BD80B505F0F3FD80BD80B505F042
:107D9000F3FD80BD80B505F0F0FD80BD80B505F038
:107DA000EDFD80BD80B505F0EAFD80BD80B505F034
:107DB000E7FD80BD80B505F0E4FD80BD80B505F030
:107DC000E1FD80BD80B505F0DEFD80BD80B505F02C
:107DD000DBFD80BD80B505F0D8FD80BD80B505F028
:107DE000D5FD80BD80B505F0D2FD80BD80B505F024
:107DF000CFFD80BD10B50021016041601A4A42618B
:107E000042628162426321225406184A184BA04202
:107E100008D043242406A04202D14032403301E07E
:107E2000803280336020106019605060596090602B
:107E30009960D060D9601061196150615961906199
:107E40009961D061D9611062196250625962906281
:107E50009962D062D9621063196350635963906369
:107E60009963D063D96310BDFFFF0000003000416B
:107E700000200041F0B521225306364A984206D030
:107E800043231B06984201D1403200E08032002398
:107E90001AE056682643566004242E46264057684A
:107EA000A743BC19546020242E4626405768A74398
:107EB000BC195460402425405668A6437419546088
:107EC0005B1C0832102B44D0012425469D400E68CF
:107ED0002E4226D00E79012E03D106692E4306616B
:107EE00000E0456115680326B54315604D79AE077E
:107EF00000D5022416682643166004242E46264028
:107F00001768A743BC19146020242E462640176822
:107F1000A743BC191460402425401668A643741971
:107F200014605B1C012425469D400E682E42C7D07C
:107F30000E79012E03D106692E43066100E04561EA
:107F400055680326B54355604D79AE07A1D5022487
:107F50009FE7F0BD00300041024901603121490234
:107F600081807047FFFF000000680840411E884183
:107F70007047006880B2704740680840411E8841E1
:107F80007047406880B2704710B5CAB2920082183C
:107F900001239C0211510A0A92008018DA028150D2
:107FA00010BDB0B5CAB29200821801239C02CD4325
:107FB0001551090A89004018D9024550B0BDB0B525
:107FC000CBB29B00C3180124A5025A51090A8900AB
:107FD0004018E1024250B0BD41607047836A0B43D4
:107FE0008362012A04D0242283580B4383507047B4
:107FF000202283580B4383507047C046044A826254
:10800000012902D02421425070472021425070475C
:10801000FFFF0000012A04D0342283580B43835011
:108020007047302283580B4383507047012903D097
:108030003421034A425070473021014A4250704770
:10804000FFFF0000014981637047C046FFFF000049
:10805000806B0840411E88417047C04610B500281B
:1080600034D0012836D1C807C04800D0DEE08B07E5
:1080700000D5E5E04B0700D5ECE00B0700D5F3E0B9
:10808000CB0600D5FAE08B0600D501E14B0600D502
:1080900008E10B0600D50FE1CB0500D516E18B05F5
:1080A00000D51DE14B0500D524E10B0500D52BE1E2
:1080B000CB0400D532E18B0400D539E14B0400D567
:1080C00040E109B2002900D547E110BDC807A74823
:1080D00003D109E0C807A64806D003680324A343D8
:1080E00003600368134303608B071DD44B0724D43C
:1080F0000B072BD4CB0632D48B0639D44B0640D495
:108100000B0647D4CB054ED48B0555D44B055CD418
:108110000B0563D4CB046AD48B0471D44B0478D49C
:1081200009B20029D1D57FE043680324A34343600B
:108130004368134343604B07DAD583680324A343A2
:1081400083608368134383600B07D3D5C36803241C
:10815000A343C360C3681343C360CB06CCD5036994
:108160000324A34303610369134303618B06C5D54D
:1081700043690324A34343614369134343614B06AB
:10818000BED583690324A343836183691343836159
:108190000B06B7D5C3690324A343C361C369134363
:1081A000C361CB05B0D5036A0324A3430362036A0A
:1081B000134303628B05A9D5436A0324A343436297
:1081C000436A134343624B05A2D5836A0324A34346
:1081D0008362836A134383620B059BD5C36A0324BE
:1081E000A343C362C36A1343C362CB0494D5036B36
:1081F0000324A3430363036B134303638B048DD5F1
:10820000436B0324A3434363436B134343634B0414
:1082100086D5836B0324A3438363836B13438363F8
:1082200009B2002900D450E73C3097E0036C0324E6
:10823000A3430364036C134303648B0700D419E75F
:10824000436C0324A3434364436C134343644B07CD
:1082500000D412E7836C0324A3438364836C134329
:1082600083640B0700D40BE7C36C0324A343C364EC
:10827000C36C1343C364CB0600D404E7036D03242B
:10828000A3430365036D134303658B0600D4FDE62A
:10829000436D0324A3434365436D134343654B067A
:1082A00000D4F6E6836D0324A3438365836D1343F3
:1082B00083650B0600D4EFE6C36D0324A343C365B7
:1082C000C36D1343C365CB0500D4E8E6036E0324F6
:1082D000A3430366036E134303668B0500D4E1E6F4
:1082E000436E0324A3434366436E134343664B0527
:1082F00000D4DAE6836E0324A3438366836E1343BC
:1083000083660B0500D4D3E6C36E0324A343C36680
:10831000C36E1343C366CB0400D4CCE6036F0324BF
:10832000A3430367036F134303678B0400D4C5E6BD
:10833000436F0324A3434367436F134343674B04D3
:1083400000D4BEE6836F0324A3438367836F134384
:10835000836709B2002900D4B7E67C3001680323A3
:108360009943016001681143016010BD0020004184
:1083700080200041F0B581B0009321246406824D35
:10838000A04204D043263606B04204D14035002630
:10839000012A0AD07DE080350026012A05D078E048
:1083A000761C1035102E00D1DBE001221746B740B5
:1083B0000F4216D003693B4303612B680327BB437D
:1083C0002B602B6802271F432F602B680427BB43B9
:1083D0002B602B6820271F432F602B6840271F43EB
:1083E0002F60761C1746B7400F4216D003693B43F7
:1083F00003616B680327BB436B606B6802271F43F5
:108400006F606B680427BB436B606B6820271F435A
:108410006F606B6840271F436F60761C1746B7403C
:108420000F4216D003693B430361AB680327BB438C
:10843000AB60AB6802271F43AF60AB680427BB4348
:10844000AB60AB6820271F43AF60AB6840271F437A
:10845000AF60761CB2400A42A2D0036913430361A5
:10846000EA6803239A43EA60EA6802231343EB6055
:10847000EA6804239A43EA60EA6820231343EB6026
:10848000EA6840231343EB608AE7761C1035102E10
:1084900067D001221746B7400F4214D047612B68BE
:1084A0000327BB432B602B6802271F432F602B68D9
:1084B0000427BB432B602B6820271F432F602B68AA
:1084C00040271F432F60761C1746B7400F4214D039
:1084D00047616B680327BB436B606B6802271F43D0
:1084E0006F606B680427BB436B606B6820271F437A
:1084F0006F606B6840271F436F60761C1746B7405C
:108500000F4214D04761AB680327BB43AB60AB6835
:1085100002271F43AF60AB680427BB43AB60AB6867
:1085200020271F43AF60AB6840271F43AF60761C16
:10853000B2400A42A9D04261EA6803239A43EA6042
:10854000EA6802231343EB60EA6804239A43EA6073
:10855000EA6820231343EB60EA6840231343EB608F
:1085600093E743221206904203D00222A04203D096
:1085700003E00122A04200D100221046009AFFF73A
:108580006DFD01B0F0BDC04600300041F0B581B0D6
:1085900021235B064E4D0093984206D043231B06D1
:1085A000984201D1403500E08035002603E0761C7A
:1085B0001035102E68D001231F46B7400F4214D04B
:1085C00047612F680324A7432F602C6802272743A5
:1085D0002F602C680427BC432C602C68202727437D
:1085E0002F602C68402727432F60761C1F46B7401A
:1085F0000F4214D047616C680327BC436C606C6801
:10860000022727436F606C680427BC436C606C686A
:10861000202727436F606C68402727436F60761CD4
:108620001F46B7400F4214D04761AC680327BC43D4
:10863000AC60AC6802272743AF60AC680427BC433A
:10864000AC60AC6820272743AF60AC684027274365
:10865000AF60761C1F46B7400F42A8D04761EC6858
:108660000327BC43EC60EC6802272743EF60EC680B
:108670000427BC43EC60EC6820272743EF60EC68DC
:1086800040272743EF6092E7046A0C430462846A40
:108690000C438462012A01D0342200E03022845845
:1086A0000C438450009A904205D043221206904217
:1086B00004D11C0204E08024002301E05C020223B8
:1086C00001221846FFF7CAFC0248046001B0F0BD61
:1086D0000030004100E100E0007870470170704711
:1086E000F0B581B0002B32D003251C462C40042B62
:1086F000009401D2002515E0AB4300254E19B7B216
:108700003F5C57555719741CA4B2245C7C70B41C90
:10871000A4B2245CBC70F41CA4B2245CFC702D1DBB
:10872000AB42EBD1009E002E11D06B189BB21B5CAC
:108730005355012E0BD06B1C5C18A4B2245CD4548E
:10874000022E04D0AB1C591889B2085CD05401B079
:10875000F0BDF0B582B00193002B38D00325019C09
:1087600023462B40042C009301D200251AE0019BE4
:10877000AB4301930025565D4F190B46BCB22654FE
:108780007C1CA1B2561974780C54B91C89B2B47807
:108790000C54F91C89B2F4780C5419462D1D019B18
:1087A000AB42E8D1009E002E11D0545D6B189BB2F5
:1087B0001C54012E0BD06C1C135D6418A4B22354FE
:1087C000022E04D0AB1CD25C591889B20A5402B0F4
:1087D000F0BDC046F0B585B0002A59D00E4603233F
:1087E00017461F400724A10480040140294D455924
:1087F000294C042A02920190009702D200233246AB
:1088000024E09A430392002332460495D75CE8188B
:1088100085B20D4325432F70451CADB20D43254352
:10882000D71816467A782A70821C92B20A432243DD
:10883000BD781570049DC01C80B208432043FA78AF
:10884000027032461B1D03989842DFD1009E002E15
:1088500018D0D05C17465A1992B20A4322431070BE
:10886000012E0FD0581C3A5C401980B208432043B7
:108870000270022E06D0981C3A5C401980B2014367
:1088800021430A70A8B2029940180199014A885000
:1088900005B0F0BD0C02014600000246F0B584B000
:1088A000002A53D0032317461F400724A404800442
:1088B0000440274D4559274E042A02920190009703
:1088C00001D2002321E09A4303920023E81887B2E3
:1088D000274337433F78CF54CF182A46451CADB2C3
:1088E000254335432D787D70851CADB22543354336
:1088F0002D78BD701546C01C80B2204330430078EF
:10890000F8701B1D03989842E0D1009F002F17D0EC
:10891000581980B2204330430078C854012F0FD03B
:10892000581C421992B22243324312780A54022F41
:1089300006D0981C421992B21443344322780A5448
:10894000A8B2029940180199014A885004B0F0BDBC
:10895000280201460000034610B500290BD007226B
:10896000920480040240044BC458611889B2511823
:10897000024A8918C15010BD280201460000034672
:10898000F0B589B0082803D9FF2040B209B0F0BD86
:108990000F460446FB200429F7D801263146B9408A
:1089A00016252942F1D05907FA20890FEDD1002B65
:1089B0000DD0022F05D0012F09D121210B4206D164
:1089C000E3E759B2002902D420211940DDD10496F1
:1089D00006920893A104334805910E1807961036A5
:1089E00010213046FFF77AFE3046FFF775FE00286B
:1089F000FAD1079D284628301F21FFF76FFE60003F
:108A000029490B18002098810A19039002921071CD
:108A1000049AA2404888904348803035D043019062
:108A20000C3304932846FFF757FE0028FAD1F020B4
:108A30000899014039430798FFF750FE069F002F21
:108A400009D11A4801880F46491C8AB2184B9A422C
:108A500000D118490180184805990F500127304668
:108A60003946FFF73BFE3046FFF736FE0028FAD1C5
:108A7000049803990180029801710B494888019A72
:108A80001040488008980740A7400888384308806D
:108A90002846FFF721FE0028FAD0204640B209B050
:108AA000F0BDC0460000014694030020F000002005
:108AB000F0FF000000C0FFFF1401014670B5082858
:108AC00002D9FF2670B270BD0546800412494418D1
:108AD00010212046FFF702FE2046FFF7FDFD00288B
:108AE000FAD1204618301F21FFF7F8FD68000B4926
:108AF0000818002282814819027101263046A840D8
:108B00004A8882434A8020342046FFF7E5FD00284A
:108B1000FAD170B270BDC046100001469403002027
:108B2000F0B581B0082803D9FF2040B201B0F0BDF4
:108B300004468004274946183046FFF7CDFD0F2133
:108B4000014001291AD1354630352846FFF7C4FDCA
:108B5000132817D13746103702213846FFF7BEFDDC
:108B60003846FFF7B9FD0028FAD12846FFF7B4FDD3
:108B700014280BD1012040B201B0F0BDFB2040B25F
:108B800001B0F0BDFD2040B201B0F0BD102138466B
:108B9000FFF7A4FD3846FFF79FFD0028FAD12836DD
:108BA0001F213046FFF79AFD60000B49081800228C
:108BB0008281081902710120A0404A8882434A80BC
:108BC0002846FFF789FD0028FAD1FC2040B201B009
:108BD000F0BDC0460000014694030020F0B585B00A
:108BE000082803D9FF2148B205B0F0BD1746064654
:108BF00004918404404825182846FFF76DFD0F2195
:108C00000140012947D1039402972F463037384657
:108C1000FFF762FD132842D100970195049C21784B
:108C20000804627812021018A27880180002E27814
:108C30008018401E0222D243904234D8029D002D5B
:108C400035D02E48039A1718F81DFFF747FDB81DB9
:108C50006178FFF743FD781DA178FFF73FFD381DD0
:108C6000E178FFF73BFD254803990D50019D2C4607
:108C7000103404212046FFF731FD2046FFF72CFD7C
:108C80000028FAD11E480088F040C00713D0002108
:108C900048B205B0F0BDFB2148B205B0F0BDFD21E2
:108CA00048B205B0F0BDF42148B205B0F0BDF521E1
:108CB00048B205B0F0BD2C462034009E3046FFF788
:108CC0000BFD17280BD02046FFF706FD00070AD43E
:108CD0003046FFF701FDFC210028EFD183E7012199
:108CE00048B205B0F0BD283508212846FFF7F6FC4C
:108CF000F32148B205B0F0BD000001462001014655
:108D000094030020F0B583B0082803D9FF2460B293
:108D100003B0F0BD054680042C4947183846FFF7DC
:108D2000DBFC0F210140012918D13E4610360821F5
:108D30003046FFF7D3FC3046FFF7CEFC0028FAD1CF
:108D400001242046A840224A51888143518011883D
:108D5000084207D0002460B203B0F0BDFB2460B22B
:108D600003B0F0BD0295C04300903D462035019709
:108D700030373846FFF7B0FC0028C8D02846FFF748
:108D8000ABFC0007F5D510213046FFF7A7FC3046B5
:108D9000FFF7A2FC0028FAD1019828301F21FFF725
:108DA0009DFC029A50000A4B1818002181819818E6
:108DB000017158880099084058803846FFF78CFCAC
:108DC0000028FAD1F32460B203B0F0BD00000146E0
:108DD00094030020F0B587B006460620C443082E51
:108DE00003D9A41D204607B0F0BD0F460392B1047D
:108DF000434806910D182846FFF76EFC0F210140ED
:108E000001291ED1039800281FD028463030059034
:108E1000FFF762FC1C2801D01728E3D10121B140E3
:108E200038484088049101421DD028462030FFF781
:108E300053FCC1060DD4000755D40024204607B0CA
:108E4000F0BDA41C204607B0F0BDE41F204607B0CB
:108E5000F0BD284628301021FFF740FC294A5088F1
:108E6000049988435080009702960195264D0698F4
:108E70004019FFF731FC8006070C0398B84200D870
:108E800007462D1D01E0B84214D2069846590598B0
:108E9000FFF722FC172801D01C282BD1B0B21949AA
:108EA0000988049A0A42EED0B842ECD20024204647
:108EB00007B0F0BD029800993A46FFF78BFC019C81
:108EC000103420212046FFF709FC2046FFF704FC60
:108ED0000028FAD10B4A50880499084350803C4638
:108EE000204607B0F0BD3046FFF7E8FDA41F20463E
:108EF00007B0F0BD0298FFF7E1FD204607B0F0BDD6
:108F0000000001469403002000020146F0B58BB03A
:108F10000D460621CC43082803D9A41D20460BB0DA
:108F2000F0BD17460794049081045848089108182A
:108F300003901038FFF7D0FB0F210140012943D1E6
:108F4000002F46D002955248089D064628180690E4
:108F50002030FFF7C1FB01248006000C874200D8B7
:108F60003846019004988440039820300A90301DC0
:108F7000059024360996474E01E000282ED1099825
:108F80002F580A98FFF7A8FB1C2806D017283BD1BA
:108F9000B8B231880C4211D1EFE7B8B200281DD128
:108FA0000598285885B20698FFF796FB80028542FF
:108FB0004BD00020089D31880C42DED00028DCD147
:108FC000002420460BB0F0BD079CA41C20460BB02B
:108FD000F0BD079CE41F20460BB0F0BD019988420C
:108FE00001D308460F46BCB2049802992246FFF707
:108FF00055FC4021039D2846FFF770FB2846FFF7EC
:109000006BFB0028FAD189E71021039D2846FFF762
:1090100065FB2846FFF760FB0028FAD118351F21B1
:109020002846FFF75BFB049A50003018002181812D
:10903000B01801717088A0437080079C0A9D284673
:10904000FFF74AFB0028FAD168E71021039D284664
:10905000FFF744FB2846FFF73FFB0028FAD11835FD
:109060001F212846FFF73AFB049A500030180021D0
:109070008181B01801717088A0437080079C0A9D9F
:109080002846FFF729FB0028FAD147E710000146E0
:109090000002014694030020F0B587B007460D207A
:1090A000C443082F03D90D34204607B0F0BD1E4637
:1090B00004920191B904514806910D182846FFF712
:1090C0000BFB0F210140042901D002295CD1049837
:1090D0000028E9D030780004717809020818B178C6
:1090E00040180002F178401852D00C98002853D054
:1090F0000590284630300290FFF7EEFA422801D062
:1091000022284DD100953E4906984518E81D317832
:10911000FFF7E4FAA81D7178FFF7E0FA681DB1784F
:10912000FFF7DCFA281DF178FFF7D8FA34480390EE
:109130000598069A32495050E0352846FFF7CCFA98
:1091400001268006010C04980591884200D80590FC
:10915000BE400398E430039002E00599884227D28C
:109160000698039945580298FFF7B6FA00281BD0D5
:10917000A8B2244909880E42EFD005998842ECD262
:109180000024204607B0F0BD0934204607B0F0BDEA
:10919000A41C204607B0F0BDE41C204607B0F0BD7B
:1091A000E41D204607B0F0BD0A34204607B0F0BDEC
:1091B00038460199059AFFF70DFB009D10352021D7
:1091C0002846FFF78BFA2846FFF786FA0028FAD1DF
:1091D000009D20352846FFF77FFAC10604D400071A
:1091E000F8D5641C082101E01021059C0098283066
:1091F000FFF774FA204607B0F0BDC04600000146F4
:109200002001014694030020F0B58BB005460D20E7
:10921000C643082D03D90D3630460BB0F0BD0F46BE
:1092200005930792A904614808910C18204610384C
:10923000FFF752FA0F210140042901D0022940D141
:1092400007990029E8D003976900594A51188B897A
:109250000027002B3B46049537D00C3155192B7154
:109260000723184004280E464ED002286CD13788B8
:10927000002F07987BD13746109E09A90822049831
:10928000FFF70CFB40212046FFF728FA2046FFF7A6
:1092900023FA0028FAD10998059A107009A8417894
:1092A000517081789170C178D1700A9949BA318032
:1092B000C08841BA3E4639808021297100BA070C26
:1092C00054E0093630460BB0F0BD00930190029196
:1092D0000120A84006902546203501E000283DD118
:1092E0000898344947582846FFF7F6F9002831D046
:1092F000B8B22F490988069A0A42EFD00028EDD16A
:10930000002630460BB0F0BD3788002F2ED109A9BA
:1093100002220498FFF7C2FA40212046FFF7DEF947
:109320002046FFF7D9F90028FAD1099841BA3180CF
:1093300000BA070C2048874216D30498FFF7BEFBFB
:109340001E4E30460BB0F0BDB9B20498FFF704FBD7
:10935000378014E00A3630460BB0F0BD0299049D08
:109360000198134A009B78E780202871079887426C
:1093700000D30746049803993A46FFF78FFA402135
:109380002046FFF7ABF92046FFF7A6F90028FAD1EF
:109390003088C11B3180BEB2B04200D13CE7287991
:1093A00001210143297130460BB0F0BD1000014688
:1093B0009403002024020146EB05000017FCFFFF88
:1093C00010B5082802D9FF2250B210BD1446F6226B
:1093D00007294BD87944097949008F44031F112785
:1093E0001530353E2178002942D001293ED1012295
:1093F00011468140254803880B43038050B210BDBD
:1094000080042149401815E021781F292ED88004B6
:109410001C4A8018001DFFF761F926E01B490988E6
:10942000C14001221140217050B210BD8004164984
:1094300040182030FFF750F98002208015E08004AA
:1094400010494018001F0BE021781F290ED8800416
:109450000C4A8018FFF742F907E0800409494018D8
:10946000FFF73AF91F2101402170012250B210BDCF
:10947000012211468140054803888B43038050B286
:1094800010BDC0462400014600020146940300209E
:1094900070B5082802D9FF2040B270BD491E0629C8
:1094A0000DD814467944097949008F44030B101BE9
:1094B000151E310080042E494018783833E0F6201C
:1094C00040B270BD80042A4940187C382BE08004EB
:1094D00027494018703803E0800425494018603857
:1094E00021880160012040B270BD85041F482C18FE
:1094F0002046FFF7F1F80F210140012919D11C483E
:109500002818FFF7E9F8002816D0FE2040B270BDF9
:10951000850416482818FFF7DFF80F2101400129BC
:1095200007D1134828182178FFF7D8F8012040B256
:1095300070BDFB2040B270BD254610352221284663
:10954000FFF7CCF8264620362846FFF7C5F8002856
:10955000C8D03046FFF7C0F80007F5D528340821F9
:109560002046FFF7BBF8F32040B270BD0000014673
:109570008001014670B5082802D9FF2040B270BDB5
:109580000546FE200C2900D97FE01446794409796C
:1095900049008F44060F14494E187A1E666D722ECC
:1095A0003900A8043D494018FFF796F8F021014022
:1095B000217069E0A8043C494018001D61E0A8043E
:1095C000394940185DE0A80437494018C069208037
:1095D0005AE0AD0431482818FFF77EF80F2101400A
:1095E00001291ED1304828187C30FFF775F82080FB
:1095F0004AE0AE0429483018FFF76EF8012846D13A
:109600002848305820803FE0A80424494018FFF73C
:1096100063F80F210140012903D121484019007945
:1096200031E0FB2040B270BDA8041F494018C0685B
:1096300029E0A8041C49451828462330FFF74CF8B8
:10964000207028462230FFF747F860702846213006
:10965000FFF742F8A07020352846FFF73DF8E0708C
:1096600012E0A8040F4940182038006820800BE061
:10967000A8040C494058208006E0A8040749401877
:109680003030FFF729F82070012040B270BD68002B
:109690000349081880892080F6E7C046000001468B
:1096A00094030020240201460401014670477047DC
:1096B000704770470078704701707047002070470E
:1096C0007047C04610B54A1E0B469341441E0246E1
:1096D000A2411A4005D0084BD960002A06D09860F4
:1096E00010BD0449044BD960002AF8D103489860A2
:1096F00010BDC046AF960000B0000020AD9600003F
:1097000010B54A1E0B469341441E0246A2411A4020
:1097100005D0084B5961002A06D0186110BD0449D4
:10972000044B5961002AF8D10348186110BDC046A6
:10973000B3960000B0000020B1960000B0B50C4A0E
:109740001388DB0500D4FEE74B1E0C469C41451EEA
:109750000346AB41234004D0D161002B05D090617A
:10976000B0BD0449D161002BF9D103489061B0BD6F
:10977000B0000020B9960000B5960000B0B50C4AC4
:1097800013889B0500D4FEE74B1E0C469C41451EEA
:109790000346AB41234004D0D161002B05D090613A
:1097A000B0BD0449D161002BF9D103489061B0BD2F
:1097B000B0000020C1960000BD96000070B50C46B8
:1097C0000146FF20082951D87944097949008F447E
:1097D0000409192831124D4D400000F04DF80020C9
:1097E00040B270BD2146002C00D00831204600F068
:1097F00001F940B270BD1F4D2846FEF76DFF0646C9
:10980000103505E01B4D281FFEF766FF06460C3598
:109810002846FEF761FF000280192080002040B238
:1098200070BD2588F0212940124C201DFEF756FFFF
:109830000C3407E02588F02129400E4C2046FEF725
:109840004DFF1034290A2046FEF748FF002040B2A1
:1098500070BD074881782170C17861700179A1706D
:109860004179E170817900206071217140B270BD51
:10987000B000002004210046F0B5A1B05B4CE01C14
:109880002090FEF729FF1E90A01C1F90FEF724FFDA
:109890001C90601C1D90FEF71FFF1A902046FEF7DB
:1098A0001BFF1990E01D1B90FEF716FF1790A01DDF
:1098B0001890FEF711FF169020460B301590FEF71A
:1098C0000BFF149020460A301390FEF705FF12900C
:1098D000204609301190FEF7FFFE10902046083018
:1098E0000F90FEF7F9FE0E9020460F300D90FEF718
:1098F000F3FE0C9020460E300B90FEF7EDFE0A9022
:1099000020460D300990FEF7E7FE089020460C3007
:109910000790FEF7E1FE0690204613300590FEF713
:10992000DBFE0490204612300390FEF7D5FE029035
:10993000254611352846FEF7CFFE01902646103603
:109940003046FEF7C9FE0090294F80213846FEF7C9
:10995000C5FE3846FEF7C0FE20981E99FEF7BEFEF3
:109960001F981C99FEF7BAFE1D981A99FEF7B6FECD
:1099700020461999FEF7B2FE1B981799FEF7AEFE26
:1099800018981699FEF7AAFE15981499FEF7A6FEE8
:1099900013981299FEF7A2FE11981099FEF79EFEF9
:1099A0000F980E99FEF79AFE0D980C99FEF796FE09
:1099B0000B980A99FEF792FE09980899FEF78EFE19
:1099C00007980699FEF78AFE05980499FEF786FE29
:1099D00003980299FEF782FE28460199FEF77EFE63
:1099E00030460099FEF77AFE21B0F0BD00600046D7
:1099F00000230046B0B50C460546FFF73DFF002D9D
:109A000033D0297868784018AA781018EA781018A6
:109A10002A7910186A791018AA791018EA7910189A
:109A200040B2102802DDFF2568B2B0BD2F48FEF716
:109A300055FE69782E48FEF751FEA9782D48FEF7AD
:109A40004DFEE9782C48FEF749FE29792B48FEF7B0
:109A500045FE69792A48FEF741FEA9792948FEF7B3
:109A60003DFEE9792848FEF739FE0025002C3BD061
:109A7000217860784018A2781018E27810182279BE
:109A8000101862791018A2791018E279101840B2F3
:109A9000102802DDFF2568B2B0BD14482030FEF763
:109AA0001DFE617812482030FEF718FEA17811489B
:109AB0002030FEF713FEE1780F482030FEF70EFE4F
:109AC00021790E482030FEF709FE61790C482030DC
:109AD000FEF704FEA1790B482030FEF7FFFDE17987
:109AE00009482030FEF7FAFD68B2B0BD0002014619
:109AF000000205460002094600020D46000211461A
:109B0000000215460002194600021D46B0B5044683
:109B1000F0210140044D2846FEF7E0FD0835210AFA
:109B20002846FEF7DBFDB0BD08210046B0B5064C67
:109B30002046FEF7D1FD054610342046FEF7CCFD49
:109B400000024019B0BDC04600210046B0B5044631
:109B5000F0210140044D2846FEF7C0FD1035210AD2
:109B60002846FEF7BBFDB0BD04210046B0B5064C4B
:109B70002046FEF7B1FD054610342046FEF7ACFD49
:109B800000024019B0BDC046042100460020C04379
:109B900070470020C0437047B0B50C46FF21052830
:109BA00017D8C046784400794000874402080E1454
:109BB0001B27204600F03CF8002148B2B0BD2046EB
:109BC00000F09EF8002148B2B0BD2478C7200442BE
:109BD0001ED048B2B0BD1548FEF77EFD20700021B2
:109BE00048B2B0BD2178104D002902D0281DFEF7E3
:109BF00075FD60882860002148B2B0BD0A4D281D5F
:109C0000FEF76AFD207028686080002148B2B0BD70
:109C1000064D2846FEF760FD044328462146FEF720
:109C20005DFD002148B2B0BD406000460023004603
:109C3000B0B504460178304DE81CFEF74FFD617861
:109C4000A81CFEF74BFDA178681CFEF747FDE178E4
:109C50002846FEF743FD2179E81DFEF73FFD6179B7
:109C6000A81DFEF73BFDA17B28460B30FEF736FD15
:109C7000E17B28460A30FEF731FD217C2846093079
:109C8000FEF72CFD617C28460830FEF727FDA17AFF
:109C900028460F30FEF722FDE17A28460E30FEF707
:109CA0001DFD217B28460D30FEF718FD617B2846FF
:109CB0000C30FEF713FDA17928461330FEF70EFD98
:109CC000E17928461230FEF709FD217A2846113045
:109CD000FEF704FD617A10352846FEF7FFFCA07CF4
:109CE00006490870E07C4870207D8870607DC870EF
:109CF000A07D0871B0BDC04600600046B0030020E2
:109D0000B0B50446304DE81CFEF7E6FC2070A81CF8
:109D1000FEF7E2FC6070681CFEF7DEFCA0702846CF
:109D2000FEF7DAFCE070E81DFEF7D6FC2071A81DF6
:109D3000FEF7D2FC607128460B30FEF7CDFCA07315
:109D400028460A30FEF7C8FCE07328460930FEF7C3
:109D5000C3FC207428460830FEF7BEFC6074284619
:109D60000F30FEF7B9FCA07228460E30FEF7B4FCA7
:109D7000E07228460D30FEF7AFFC207328460C3009
:109D8000FEF7AAFC607328461330FEF7A5FCA0710D
:109D900028461230FEF7A0FCE07128461130FEF78D
:109DA0009BFC207210352846FEF796FC607207482F
:109DB0000178A1744178E17481782175C178617569
:109DC0000079A075B0BDC04600600046B003002019
:109DD000B0B50446C720044202D0FF2040B2B0BD57
:109DE000054D2846FEF778FC044328462146FEF739
:109DF00075FC002040B2B0BD0023004680B502488B
:109E0000FEF76AFC80BDC04600230046B0B504469C
:109E10000178044D002902D0281DFEF75FFC608800
:109E20002860B0BD40600046B0B50446034D281D13
:109E3000FEF752FC207028686080B0BD406000468C
:109E400080B543200006012100F004F84007C00F50
:109E500080BDC046F0B581B0009104461F20C743C5
:109E60003D461F35E04E17E0FEF79BF801263046D1
:109E700004F018FBDC4801882046FEF785F83046E0
:109E8000D94E04F00FFB31882046FEF78AF8781C83
:109E90006D00B842074606D371882046002DE3D5F1
:109EA000FEF772F8E2E771882046FEF77AF801269D
:109EB000304604F0F7FACC4801882046FEF764F8F3
:109EC000304604F0EFFAC84801882046FEF769F8EA
:109ED000C54841882046FEF757F8304604F0E2FABC
:109EE000C14801882046FEF74FF8304604F0DAFA00
:109EF000BD4801882046FEF754F8BB4841882046FB
:109F0000FEF742F8304604F0CDFAB7480188204603
:109F1000FEF73AF8304604F0C5FAB3480188204607
:109F2000FEF73FF8B04841882046FEF73AF8304641
:109F300004F0B8FAAC4801882046FEF725F8304610
:109F4000A94927460C4604F0ADFA21883846FEF7A9
:109F500028F86188A5480568E80603D43846FEF766
:109F600020F802E03846FEF70FF80126304604F0EC
:109F700099FA9D4C21883846FEF706F8304604F0E1
:109F800091FA21883846FEF70CF86188280703D437
:109F90003846FEF706F802E03846FDF7F5FF0126E1
:109FA000304604F07FFA904C21883846FDF7ECFFEC
:109FB000304604F077FA21883846FDF7F2FF6188D1
:109FC000680703D43846FDF7ECFF02E03846FDF79A
:109FD000DBFF0126304604F065FA834C21883846C1
:109FE000FDF7D2FF304604F05DFA21883846FDF7D0
:109FF000D8FF6188A80703D43846FDF7D2FF02E0F6
:10A000003846FDF7C1FF0126304604F04BFA764C86
:10A0100021883846FDF7B8FF304604F043FA21881E
:10A020003846FDF7BEFF6188E80703D13846FDF7E3
:10A03000B8FF02E03846FDF7A7FF009D0126304635
:10A0400004F030FA684C21883846FDF79DFF304611
:10A0500004F028FA21883846FDF7A3FF6188E80656
:10A0600003D43846FDF79DFF02E03846FDF78CFF2C
:10A070000126304604F016FA5B4C21883846FDF77D
:10A0800083FF304604F00EFA21883846FDF789FF39
:10A090006188280703D43846FDF783FF02E038467D
:10A0A000FDF772FF0126304604F0FCF94E4C218882
:10A0B0003846FDF769FF304604F0F4F92188384648
:10A0C000FDF76FFF6188680703D43846FDF769FF25
:10A0D00002E03846FDF758FF0126304604F0E2F969
:10A0E000414C21883846FDF74FFF304604F0DAF93D
:10A0F00021883846FDF755FF6188A80703D4384604
:10A10000FDF74FFF02E03846FDF73EFF01263046DF
:10A1100004F0C8F9344C21883846FDF735FF304645
:10A12000264604F0BFF921883846FDF73AFF6188DA
:10A13000E8073C46384602D1FDF733FF01E0FDF762
:10A1400023FF0125284604F0ADF931882046FDF7AC
:10A150001BFF284604F0A6F931882046FDF721FFB1
:10A1600070886061284604F09DF931882046FDF72B
:10A170000BFF284604F096F931882046FDF711FFC1
:10A18000284604F08FF90025102731882046FDF776
:10A19000FBFE0126304604F085F91348018820466D
:10A1A000FDF7FFFE3046104E04F07CF97188204622
:10A1B000FDF7DAFE6D0005437F1EE6D17088206151
:10A1C00031882046FDF7E0FE27463446012630461A
:10A1D00004F068F921883846FDF7E3FE304604F0C4
:10A1E00061F9284601B0F0BD0400002040090020BC
:10A1F00080B501210A03904203D0212109020840C1
:10A20000024643200006002100F002F880BDC0464F
:10A21000F0B585B00192009102901F20C043054621
:10A220001F35ED4C049018E0029E3046FDF7B9FE54
:10A230000127384604F036F9E74C21883046FDF70F
:10A24000A3FE384604F02EF921883046FDF7A9FE1A
:10A250000399481C6D00884208D36188002D039043
:10A26000E2D5029E3046FDF78FFEE1E76188029D50
:10A270002846FDF796FE0127384604F013F9218899
:10A280002846FDF781FE384604F00CF9218828465F
:10A29000FDF787FE61882846FDF776FE384604F014
:10A2A00001F921882846FDF76FFE384604F0FAF8D8
:10A2B00021882846FDF775FE61882846FDF771FE66
:10A2C000384604F0EFF821882846FDF75DFE384651
:10A2D00004F0E8F821882846FDF763FE61882846E7
:10A2E000FDF752FE384604F0DDF821882846FDF7D8
:10A2F0004BFE384604F0D6F821882846FDF751FE7B
:10A300006188B64800680390C00603D42846FDF76C
:10A3100048FE02E02846FDF737FE2C460127384666
:10A3200004F0C0F8AC4D29882046FDF72DFE3846D4
:10A3300004F0B8F829882046FDF733FE69880398B1
:10A340000007009D204602D4FDF72BFE01E0FDF73B
:10A350001BFE0127384604F0A5F89F4E31882046A1
:10A36000FDF712FE384604F09DF831882046FDF7CF
:10A3700018FE71880398400703D42046FDF711FEAC
:10A3800002E02046FDF700FE0127384604F08AF877
:10A39000914E31882046FDF7F7FD384604F082F8EB
:10A3A00031882046FDF7FDFD71880398800703D4AE
:10A3B0002046FDF7F6FD02E02046FDF7E5FD01270A
:10A3C000384604F06FF8844E31882046FDF7DCFDF6
:10A3D000384604F067F831882046FDF7E2FD7188C1
:10A3E0000398C00703D12046FDF7DBFD02E02046BD
:10A3F000FDF7CAFD0127384604F054F8764E31883F
:10A400002046FDF7C1FD384604F04CF8318820465F
:10A41000FDF7C7FD7188E80603D42046FDF7C1FDAE
:10A4200002E02046FDF7B0FD0127384604F03AF877
:10A43000694E31882046FDF7A7FD384604F032F812
:10A4400031882046FDF7ADFD7188280703D42046EA
:10A45000FDF7A7FD02E02046FDF796FD01273846EF
:10A4600004F020F85C4E31882046FDF78DFD38461B
:10A4700004F018F831882046FDF793FD71886807CD
:10A4800003D42046FDF78DFD02E02046FDF77CFD5C
:10A490000127384604F006F84F4E31882046FDF774
:10A4A00073FD384603F0FEFF31882046FDF779FD45
:10A4B0007188A80703D42046FDF773FD02E020460B
:10A4C000FDF762FD0127384603F0ECFF424E31886C
:10A4D0002046FDF759FD384603F0E4FF3188204659
:10A4E000FDF75FFD7188E80703D12046FDF759FDB0
:10A4F00002E02046FDF748FD0125284603F0D2FF83
:10A50000354E31882046FDF73FFD284603F0CAFF4F
:10A5100031882046FDF745FD71882046FDF734FD62
:10A52000284603F0BFFF31882046FDF72DFD284661
:10A5300003F0B8FF31882046FDF733FD71882046CF
:10A54000FDF72FFD284603F0ADFF31882046FDF7CB
:10A550001BFD2846354603F0A5FF31882046FDF750
:10A5600020FD0498103001990F0417E0FDF719FD44
:10A570000125284603F096FF174E31882046FDF747
:10A5800003FD2846354603F08DFF31882046FDF750
:10A5900008FD049E701C7F00B04207D36988002F1D
:10A5A00004902046E2D5FDF7EFFCE1E768882061E2
:10A5B00029882046FDF7E8FC26462C46012528463A
:10A5C00003F070FF21883046FDF7EBFC284603F0CE
:10A5D00069FF05B0F0BDC04604000020400900201E
:10A5E000F0B583B015460C46009001AF3846FDF734
:10A5F000B3FC01263E71284620430190009839465D
:10A60000FDF738FC304629463246FDF727FD304637
:10A6100021463246FDF722FD04484580048000F0C3
:10A6200009F80349086003B0F0BDC04604000020EB
:10A6300040090020F0B583B0432004061F20C0432A
:10A6400001900120DA4F07E0DBA00AF09BFE00201A
:10A650000099C90700D1A7E10090002004E002980A
:10A66000401C0928D24FEFD00290019D2E461F3684
:10A6700017E0FDF796FC0127384603F013FFCC489E
:10A6800001882046FDF780FC3846C94F03F00AFFD9
:10A6900039882046FDF785FC681C7600A8420546EF
:10A6A00006D379882046002EE3D5FDF76DFCE2E75E
:10A6B00079882046FDF775FC0127384603F0F2FE45
:10A6C000BB4801882046FDF75FFC384603F0EAFEF0
:10A6D000B74801882046FDF764FCB548418820460C
:10A6E000FDF752FC384603F0DDFEB14801882046F4
:10A6F000FDF74AFC384603F0D5FEAD4801882046F8
:10A70000FDF74FFCAA4841882046FDF73DFC38463E
:10A7100003F0C8FEA64801882046FDF735FC384600
:10A7200003F0C0FEA24801882046FDF73AFCA0488D
:10A7300041882046FDF735FC384603F0B3FE9C48BF
:10A7400001882046FDF720FC384603F0ABFE984810
:10A7500001882046FDF725FC954841882046FDF7F5
:10A7600020FC384603F09EFE914801882046FDF704
:10A770000BFC38468E4925460C4603F093FE218893
:10A780002846FDF70EFC6188029E300703D4284658
:10A79000FDF707FC02E02846FDF7F6FB01273846E7
:10A7A00003F080FE824C21882846FDF7EDFB3846F9
:10A7B00003F078FE21882846FDF7F3FB61887007D7
:10A7C00003D42846FDF7EDFB02E02846FDF7DCFB4D
:10A7D0000127384603F066FE754C21882846FDF7B0
:10A7E000D3FB384603F05EFE21882846FDF7D9FBEF
:10A7F0006188B00703D42846FDF7D3FB02E0284662
:10A80000FDF7C2FB0127384603F04CFE684C218857
:10A810002846FDF7B9FB384603F044FE2188284658
:10A82000FDF7BFFB6188F00703D12846FDF7B9FBB0
:10A8300002E02846FDF7A8FB2C460127384603F026
:10A8400031FE5B4D29882046FDF79EFB384603F01C
:10A8500029FE29882046FDF7A4FB69882046FDF7DC
:10A86000A0FB384603F01EFE29882046FDF78CFB2E
:10A87000384603F017FE29882046FDF792FB6988C9
:10A880002046FDF78EFB384603F00CFE2988204653
:10A89000FDF77AFB384603F005FE29882046FDF7D0
:10A8A00080FB69882046FDF77CFB384603F0FAFD03
:10A8B00029882046FDF768FB384603F0F3FD298818
:10A8C0002046FDF76EFB69882046FDF76AFB384697
:10A8D00003F0E8FD29882046FDF756FB384603F0D3
:10A8E000E1FD29882046FDF75CFB69882046FDF7DD
:10A8F0004BFB384603F0D6FD29882046FDF744FB84
:10A90000384603F0CFFD29882046FDF74AFB6888CA
:10A910006061384603F0C6FD29882046FDF734FB08
:10A92000384603F0BFFD29882046FDF73AFB38463C
:10A930002F4603F0B7FD0026102539882046FDF785
:10A9400023FB0127384603F0ADFD19480188204656
:10A95000FDF727FB3846164F03F0A4FD7988204603
:10A96000FDF702FB760006436D1EE6D17888206174
:10A9700039882046FDF708FB25463C460127384626
:10A9800003F090FD21882C462846FDF70AFB384647
:10A9900003F088FD0748864200D160E6002E00D112
:10A9A0005DE6029803B0F0BD092003B0F0BDC046DB
:10A9B00004000020FFFF00000D0A70687920696420
:10A9C00020646574656374206572726F7221210D55
:10A9D00000000000F0B581B0002A25D014460D46D5
:10A9E00006462020801A8540104F16E0FDF7D9FA60
:10A9F0000127384603F056FD0C4801883046FDF724
:10AA0000C3FA3846094F03F04DFD39883046FDF74B
:10AA1000C8FA641E6D00002C06D079883046002DDF
:10AA2000E4D5FDF7B1FAE3E701B0F0BD0400002082
:10AA3000F0B581B00546002410270E48018828464D
:10AA4000FDF7A2FA0126304603F02CFD09480188E3
:10AA50002846FDF7A6FA304603F024FD0548418854
:10AA60002846FDF781FA640004437F1EE5D12046A5
:10AA700001B0F0BD0400002070B504460A4E708895
:10AA800060610125284603F00DFD31882046FDF761
:10AA90007BFA284603F006FD31882046FDF781FA4F
:10AAA000284603F0FFFC70BD0400002070B504468A
:10AAB000094E7088206131882046FDF765FA01252E
:10AAC000284603F0EFFC31882046FDF76AFA284655
:10AAD00003F0E8FC70BDC04604000020B0B51B4D7B
:10AAE000297A1B4C20460B30FDF7F8FD697A204689
:10AAF0000A30FDF7F3FDA97A20460930FDF7EEFD97
:10AB0000E97A20460830FDF7E9FD297CE01DFDF7D4
:10AB1000E5FD697CA01DFDF7E1FDA97C601DFDF749
:10AB2000DDFDE97C201DFDF7D9FD297BE01CFDF74B
:10AB3000D5FD697BA01CFDF7D1FDA97B601CFDF74D
:10AB4000CDFDE97B2046FDF7C9FDB0BD0004002026
:10AB500008600046B0B5134C80212046FDF7BEFDCD
:10AB60002046FDF7B9FDFFF7B9FF2C200E4D295CFB
:10AB70000E4CE01CFDF7B2FD2C356978A01CFDF7EA
:10AB8000ADFDA978601CFDF7A9FDE9782046FDF729
:10AB9000A5FD2979E01DFDF7A1FD6979A01DFDF74F
:10ABA0009DFDB0BD0023004600040020006000466B
:10ABB000B0B5124C80212046FDF790FD2046FDF7F0
:10ABC0008BFD2C200E4D295C0E4CE01CFDF786FD04
:10ABD0002C356978A01CFDF781FDA978601CFDF774
:10ABE0007DFDE9782046FDF779FD2979E01DFDF727
:10ABF00075FD6979A01DFDF771FDB0BD002300460C
:10AC0000000400200060004670B5084B084C094D58
:10AC1000094E9E60DD601C61002800D0986000290C
:10AC200000D0D960002A00D01A6170BD0800002051
:10AC3000B1AB000055AB0000DDAA000070B54F4D70
:10AC4000EC694F482060286AE0718021A1720026DB
:10AC50002681010AA171010C6171000E207120464C
:10AC60000B3011210AF017FD2C20285C2077284694
:10AC70002C30417861778178A177C178E1770179CB
:10AC80002022A154214620314079487022340A21E3
:10AC900020460AF000FDEC6920462C3032210AF0F3
:10ACA000FAFC5E340E2120460AF0F5FC6C20E969BE
:10ACB0000E54E96909184E70E96909188E70E9693E
:10ACC0000918CE70E96909180E71E96909184E7101
:10ACD000E96909188E71E9690918CE71E9690918DD
:10ACE0000E72E96909184E72E96909188E72E969EC
:10ACF0000918CE72E96909180E73E96909184E73CB
:10AD0000E96909188E73E9690918CE73E9690918A8
:10AD10000E74E96909184E74E96909188E74E969B5
:10AD20000918CE74E96909180E75E96909184E7594
:10AD3000E96909188E75E9690918CE75E969091874
:10AD40000E76E96909184E76E96909188E76E9697F
:10AD50000918CE76E96909180E77E96909184E775E
:10AD6000E96909188E77E9690918CE772030EC284F
:10AD70009DD1E869EC21034A425070BD00040020D7
:10AD80000101060063825363F0B587B0AC4DEC69F6
:10AD9000AC482060286AE0718021A17200262681DB
:10ADA000010AA171010C6171000E207120460B3067
:10ADB00011210AF070FC2C200590285C20772F468A
:10ADC0002C3778786077B878A077F878E07738799A
:10ADD00020216054204620307979417022344A2164
:10ADE00020460AF058FC6C20E9690E54E9690918FC
:10ADF0004E70E96909188E70E9690918CE70E96921
:10AE000009180E71E96909184E71E96909188E71FE
:10AE1000E9690918CE71E96909180E72E96909181A
:10AE20004E72E96909188E72E9690918CE72E969EA
:10AE300009180E73E96909184E73E96909188E73C8
:10AE4000E9690918CE73E96909180E74E9690918E6
:10AE50004E74E96909188E74E9690918CE74E969B4
:10AE600009180E75E96909184E75E96909188E7592
:10AE7000E9690918CE75E96909180E76E9690918B2
:10AE80004E76E96909188E76E9690918CE76E9697E
:10AE900009180E77E96909184E77E96909188E775C
:10AEA000E9690918CE772030EC289DD1EC69EC20B7
:10AEB000654921506E62AE622146EC3101234B722E
:10AEC00007220A723D22CA718B7104934B7135229D
:10AED0000A71059AAA5C8A727A78CA72BA780A7379
:10AEE000FA7802924A733A798A737A794E740C230B
:10AEF0000B74CA73554A13780321002B059113D0A4
:10AF00000297002412218EB2EF69BE193354641CDB
:10AF1000A6B2935D491C002BF5D12F22AB5CE21C3D
:10AF20000392EC69029F03E00A4612210392029BFE
:10AF30008AB2A21813544A1C92B2EB699A183B7950
:10AF400013548A1C92B2EB699A187B791354CA1C69
:10AF500092B2931BEC691B19E824039E1E55EB6902
:10AF60009A18372313540A1D92B2EB699A180623D4
:10AF700013544A1D92B2EC69A218049C14548A1D01
:10AF800092B2EC69A218059C1454CA1D92B2EC69E5
:10AF9000A21813540A46083292B2EB699A180F238A
:10AFA00013540A46093292B2EB699A183A231354A1
:10AFB0000A460A3292B2EB699A183B2313540A46A6
:10AFC0000B3292B2EB699A18FF2313542720C20068
:10AFD0000C3188B2C108262924D8EF30E969091854
:10AFE000CB1E002119700346EE3B9BB2934219D051
:10AFF000EB691B189B1E19700346ED3B9BB29342F5
:10B0000010D0EB691B185B1E19700346EC3B9BB21A
:10B01000934207D0EB691954011DEB3880B290427E
:10B020000846DBD10020C0430690E969A878432395
:10B030000093EC3206ABFEF72FF807B0F0BDC04628
:10B040000004002001010600638253639400002085
:10B05000F0B587B0D94DEC69D9482060286AE07115
:10B060008021A17200262681010AA171010C617163
:10B07000000E207120460B3011210AF00CFB2C2011
:10B080000290285C20772A462C325078607790789E
:10B09000A077D078E07710792021605420462030C6
:10B0A00004925179417022344A2120460AF0F3FA81
:10B0B0006C20E9690E54E96909184E70E9690918AC
:10B0C0008E70E9690918CE70E96909180E71E9698D
:10B0D00009184E71E96909188E71E9690918CE716C
:10B0E000E96909180E72E96909184E72E9690918C7
:10B0F0008E72E9690918CE72E96909180E73E96957
:10B1000009184E73E96909188E73E9690918CE7335
:10B11000E96909180E74E96909184E74E969091892
:10B120008E74E9690918CE74E96909180E75E96920
:10B1300009184E75E96909188E75E9690918CE75FF
:10B14000E96909180E76E96909184E76E96909185E
:10B150008E76E9690918CE76E96909180E77E969EA
:10B1600009184E77E96909188E77E9690918CE77C9
:10B170002030EC289DD1EC69EC20924921500394B9
:10B18000EC342978C91EFF220129134617461146BF
:10B190000DD80021039A5181298991816989D18132
:10B1A00024216A5C2B462433D9789F785B780593F9
:10B1B0000B4606A9CB708F70059F4F700A70012255
:10B1C0006272072121723D21E1710327A771059267
:10B1D0006271352121710299695CA172049A5178DA
:10B1E000E17291782173D17861731179A1735179EA
:10B1F000E173FF2B1BD104216174322323742B7A5A
:10B20000A3746B7AE374AB7A2375EB7AE17536211C
:10B21000A17563752421695C2176294624314B7818
:10B2200063768B78A376C978E1761C2100E0102143
:10B23000039A53180C241C540B46059A1343EC69CB
:10B24000E3181E5402230B435F490C78002C19D0DD
:10B25000039716469FB2EA69D21914541C46059A00
:10B2600014438F5D002F0BD0A2B2EC69A2181754C3
:10B270008A195478B61C9B1C002CEBD1761E00E07A
:10B280002346039F99B2EA695118049CE2780A5454
:10B29000591C89B2EA69511822790A54991C89B259
:10B2A000EA69511862790A54D91C89B28A1BEC697F
:10B2B0001219F41CE8269455EA69511837220A54E9
:10B2C000191D89B2EA69511808220A54591D89B218
:10B2D000EA69511801220A54991D89B2EA69511884
:10B2E0000F54D91D89B2EA69511806220A54194629
:10B2F000083189B2EA6951180F220A5419460931F6
:10B3000089B2EA6951183A220A5419460A3189B2B7
:10B31000EA6951183B220A5419460B3189B2EA698D
:10B3200051181F220A5419460C3189B2EA69511882
:10B3300021220A5419460D3189B2EA695118FF22B7
:10B340000A542721CA000E339CB2E10826292BD8C3
:10B350005B423B40214610D0E969091900260E5492
:10B36000611C012B09D0EF6979180E54A11C022B26
:10B3700003D0EB6959180E54E11C144BE318032B4E
:10B3800012D3EB695B1800241C54EB695B18ED26A3
:10B390009C55EB695B18EE269C55EB695B18EF2614
:10B3A0009C55091D9142ECD1E969A878432300938B
:10B3B000EC3206ABFDF770FE07B0F0BD00040020D4
:10B3C000010106006382536394000020CBFEFFFF5F
:10B3D000F0B583B0794DEC6979482060286AE07156
:10B3E0008021A17200262681010AA171010C6171E0
:10B3F000000E207120460B3011210AF04CF92C2050
:10B400000190285C20772F462C3778786077B878C1
:10B41000A077F878E07738792021605420462030F2
:10B420007979417022344A2120460AF034F96C209F
:10B43000E9690E54E96909184E70E96909188E70B6
:10B44000E9690918CE70E96909180E71E9690918E6
:10B450004E71E96909188E71E9690918CE71E969B7
:10B4600009180E72E96909184E72E96909188E7295
:10B47000E9690918CE72E96909180E73E9690918B2
:10B480004E73E96909188E73E9690918CE73E96981
:10B4900009180E74E96909184E74E96909188E745F
:10B4A000E9690918CE74E96909180E75E96909187E
:10B4B0004E75E96909188E75E9690918CE75E9694B
:10B4C00009180E76E96909184E76E96909188E7629
:10B4D000E9690918CE76E96909180E77E96909184A
:10B4E0004E77E96909188E77E9690918CE77203017
:10B4F000EC289DD1E869EC21324A42504681EC307B
:10B5000001224272072101723D21C1710421817122
:10B51000427135220271019AAA5C82727A78C272F3
:10B52000BA780273FA7842733A7982737A794174FD
:10B5300032230374C2732A7A82746A7AC274AA7A32
:10B540000275EA7AC1753621817542752421695CDC
:10B550000176294624314A7842768A788276CA78FA
:10B56000FF210177C2763046EA6912180B460A338A
:10B57000D654EA69121885235B00D654EA6912187A
:10B580000B460C33D6542322D200904207D0EA69EE
:10B59000121843239B000024D454001DE4E700202C
:10B5A000C0430290E969A878432200928922920060
:10B5B00002ABFDF771FD03B0F0BDC04600040020F2
:10B5C0000101060063825363F0B58DB0814DA87808
:10B5D0008104814A8A580024110400D1F6E0E96907
:10B5E0000AAE009692B20BABFDF70EFE31884329EE
:10B5F00000D0EBE02C216A5CE9690B7F934200D01C
:10B60000E4E02D22AA5C4B7F934200D0DEE02E22A4
:10B61000AA5C8B7F934200D0D8E02F22AA5CCB7F1C
:10B62000934200D0D2E00A4620323023EB5C1678F9
:10B630009E4200D0CAE03123EB5C52789A4200D09F
:10B64000C4E024220992AB5C2F4624377A781E4648
:10B6500007921643BA78069216430897FF783E433E
:10B660002DD00BAE0397F7780497B27802927778D3
:10B670000597039F3278029E01929A4209D1059B59
:10B68000079A934205D1069A964202D1049ABA4289
:10B6900015D02822AA5C019B934200D096E02A464E
:10B6A00028325378059F9F4200D08FE093789E42C6
:10B6B00000D08BE0D278049B934200D086E080B229
:10B6C000F12800D282E008180BAAD3780793937868
:10B6D00006935378059312780492F031002403E026
:10B6E000891D814200D371E00A78362A00D967E0CB
:10B6F0007A441279520097443133653C656546655A
:10B7000065656565656565656565656565656565E9
:10B7100065656565656565656565656565656565D9
:10B7200065656565656565656565655265601B0090
:10B730008A78099BEA54CA78089E72700A79B270B6
:10B740004A792823049FEF542B462833079FDF7044
:10B75000069F9F70059F5F70F270C1E7491CC0E7AC
:10B760008A782A74CA786A740A79AA744A79EA7457
:10B77000B6E74A788B782B73CB786B730B79AB7306
:10B780004B79EB7308E04A788B782B75CB786B7527
:10B790000B79AB754B79EB75891C8918A1E78A7811
:10B7A0000E4E32601204CB781B02D2180B79D218DD
:10B7B00012024B79D218326092E78C78C91C90E75C
:10B7C000FF2A03D04A788918891C8AE760B20DB035
:10B7D000F0BDC046000400202402014608000020FD
:10B7E000F0B583B06E4E3078062803D1052420468C
:10B7F00003B0F0BDB07880046A494018FCF76CFFD4
:10B80000222805D0B078022144220023FDF7B8F8A1
:10B81000FFF7DAFE0027F15701240429E7D8C046D4
:10B820007944097949008F44020A16405E00B760E6
:10B83000FFF7AAFA01243470204603B0F0BD0228B5
:10B8400069D1F0690069B060FFF702FC0220307036
:10B85000204603B0F0BD062863D0C0B205285AD1F7
:10B86000524D2846FCF738FF0290032128460191EB
:10B87000FCF734FFB0784E490091334608334D4908
:10B880001122FDF709FC054648480299FCF726FFFE
:10B890000D3566D1444DA868804705206860B761C2
:10B8A00001983080204603B0F0BD3F4D2868042445
:10B8B000411C9CD0B1694008814298D9307AF0701F
:10B8C000707A3071B07A7071F07AB071306A401C61
:10B8D0003062FFF7BDFB05206860B7610424348047
:10B8E000204603B0F0BD062824D0C0B2052812D1EE
:10B8F0007770307AF178814226D1707A317981423D
:10B9000022D1B07A717981421ED1F07AB179814227
:10B910001AD104241CE000F04FF80446204603B07E
:10B92000F0BD214805214160B761012434802046E3
:10B9300003B0F0BD1C4805214160B7610120308093
:10B940000424204603B0F0BD1748C0688047032494
:10B95000154805214160B76103203080204603B0BF
:10B96000F0BDFFF735FDB069B169091A01290BD89F
:10B97000B169091A012907D8B169091A012903D83F
:10B98000B169091A0229EFD3074805214160B7615F
:10B990007770006980473770204603B0F0BDC0461D
:10B9A00000040020300001460800002044600046EA
:10B9B00088130000589C010070B501201A4C2156D4
:10B9C00001290FDCA069194D696881421ED2002649
:10B9D000A05704281CD002281AD001281AD1FFF73A
:10B9E000D3F917E000216256012A06D0042A01D0BB
:10B9F000022A04D1FFF7C8F90121217008460B493A
:10BA000005224A600021A161617070BD012070BDF6
:10BA1000FFF71EFBA661A069401D68606078411CAD
:10BA20000120617070BDC0460004002008000020A5
:10BA3000F0B581B0194C2046FCF74EFE05460321B7
:10BA40002046FCF74BFE164FB878164900913B464E
:10BA5000083315491122FDF71FFB064620462946EB
:10BA6000FCF73CFE0D3602D1012001B0F0BDFFF71E
:10BA7000AFFCB969B869421A0020012A0BD8BA692B
:10BA8000521A012A07D8BA69521A012A03D8BA6988
:10BA9000521A022AEED301B0F0BDC04644600046FF
:10BAA0000004002088130000589C01000348052171
:10BAB0004160034800218161417070470800002007
:10BAC0000004002010B5034CA078FCF7F7FF062017
:10BAD000207010BD00040020F0B587B006910590DD
:10BAE0004F4DE81C0490FCF7F7FD2C264D4FB85540
:10BAF0003C462C34A81C0390FCF7EEFD6070681CDB
:10BB00000290FCF7E9FDA0702846FCF7E5FDE07027
:10BB1000E81D0190FCF7E0FD2071AD1D2846FCF703
:10BB2000DBFD6071B95D62780A43A3781343E17865
:10BB30000B432279134303431B061DD13A48F86295
:10BB40000021A1800498FCF7C9FD61780398FCF7F7
:10BB5000C5FDA1780298FCF7C1FDE1783048FCF7FB
:10BB6000BDFD21790198FCF7B9FD61792846FCF704
:10BB7000B5FD60792279E178069BFB61059BBB707E
:10BB800013464B40434089180818C01827494018ED
:10BB90003862234F38461330069000252946FCF7BB
:10BBA0009DFD3846123005902946FCF797FD3C462E
:10BBB000113420462946FCF791FD3E4610363046AA
:10BBC0002946FCF78BFD06982946FCF787FD05986A
:10BBD0002946FCF783FD20462946FCF77FFD3046C9
:10BBE0002946FCF77BFD38460B302946FCF776FDED
:10BBF00038460A302946FCF771FD38460930294697
:10BC0000FCF76CFD083738462946FCF767FD084805
:10BC10000521416003488561058007B0F0BDC0463D
:10BC200000600046000400200008DC007856341252
:10BC30000800002002488169491C81617047C046A4
:10BC40000004002004490A7A02704A7A42708A7A13
:10BC50008270C97AC17070470004002004490A7BD1
:10BC600002704A7B42708A7B8270C97BC1707047C8
:10BC70000004002004490A7C02704A7C42708A7CDD
:10BC80008270C97CC17070470004002004490A7D9D
:10BC900002704A7D42708A7D8270C97DC170704792
:10BCA00000040020014800687047C04608000020DA
:10BCB000417800780002401880B270474170090A4C
:10BCC0000170801C7047F0B584B0154600900020CC
:10BCD0000646039007E02E241470029A1018039A67
:10BCE000521C0392AD1C2F46002E0290354601D007
:10BCF000024600E0421C0C78C0262640491CC02E9B
:10BD000003D1002D07D0029806E010462E463D468E
:10BD1000002C0DD14FE0501C3D460978A206920C34
:10BD20005118009A545C5118491C0126002C42D02D
:10BD3000E2439A1813B20022002B43D4002E274668
:10BD400000D0174602970327274009D00A782A70A7
:10BD50006A1C012F09D1491C671E042C1CD2BAE7AA
:10BD600027462A46042C17D2B5E701964E786E7006
:10BD7000AE1C022F07D1891CA71E15463246019E14
:10BD8000042C09D2A7E78A78AA70EA1CC91CE71E0E
:10BD90003546019E042C9ED30C7814704C78547058
:10BDA0008C789470CC78D470121D091D3F1F3C0410
:10BDB000F2D1551E8FE70399002906D00021297082
:10BDC00004B0F0BDD04304B0F0BD2E2129706D1C2D
:10BDD0000021297004B0F0BDF0B597B00D46019078
:10BDE00000264B2304A900953746039604E0029EE3
:10BDF0000398401C0390891C002F01D0344600E0BA
:10BE0000741C2878C02202406D1CC02A0ED1002F5D
:10BE100000D1661C2A788006800C8218019CA05CE8
:10BE2000A218551C0127002803D143E0264600280C
:10BE300040D0C2439A1813B2002B4ED4029603246A
:10BE4000044009D02A780A704E1C012C09D16D1CBF
:10BE5000441E042819D226E004460E46042814D2B3
:10BE600021E06A784A708A1C022C06D1AD1C841E1F
:10BE700031461646042808D215E0AC788C70CE1CEA
:10BE8000ED1CC41E114604280DD329783170697841
:10BE90007170A978B170E978F170361D2D1D241FDD
:10BEA0002104F2D1711E2E223270002F9FD1029EEA
:10BEB00036189DE70398002808D000200870701CF1
:10BEC0000BD000988019001D17B0F0BD2E2008700F
:10BED000491C00200870701CF3D1002017B0F0BD81
:10BEE000F0B599B0009203903F2000020290002527
:10BEF0004B2306AC01912F46284603E0059D04988C
:10BF0000401CA41C002F0595049000D16D1C0A78DC
:10BF1000C02610463040491CC02810D1002F01D146
:10BF2000681C05901002029A104009784018039985
:10BF30000A5C0818411C0127002A03D143E005953B
:10BF4000002A40D0D043181803B2002B00D5D6E009
:10BF50000325154009D008782070601C012D09D1F7
:10BF6000491C551E042A19D226E015462046042AEB
:10BF700014D221E04E786670A61C022D06D1891CD1
:10BF8000951E04463046042A08D215E08878A07031
:10BF9000E01CC91CD51E3446042A0DD30C7804704D
:10BFA0004C7844708C788470CC78C470001D091D66
:10BFB0002D1F2C04F2D1441E2E250570002F9DD17B
:10BFC000059DAD189BE70498002802D12E20207013
:10BFD000641C059A00232370501C00D190E0019945
:10BFE00013468A185078C95C0902081880B2401EAE
:10BFF00017460A370E2800D909E23B460196400051
:10C00000784480884000874490000E007B007B00CD
:10C010000E009E000E000E000E007B007B000E0046
:10C020000A017B00130100244B2306A90097224636
:10C03000049404E0059C0498401C0490891C002A88
:10C04000059400D1641C3E783046019D28407F1C39
:10C05000C02810D1002A01D1601C05903002029A3C
:10C0600010403A788018039A165C1018471C012279
:10C07000002E03D147E00594002E44D0F043181859
:10C0800003B2002B00D5BEE10325354009D0387836
:10C0900008704C1C012D09D17F1C751E042E19D26D
:10C0A00026E035460C46042E14D221E078784870FC
:10C0B000881C022D06D1BF1CB51E21460446042E45
:10C0C00008D215E0BC788C70CC1CFF1CF51E014614
:10C0D000042E0DD33878207078786070B878A0700E
:10C0E000F878E070241D3F1D2D1F2804F2D1611E39
:10C0F0002E202070002A9DD1059CA4199BE70023C7
:10C10000184619B0F0BD0498002802D12E200870FE
:10C11000491C059A00200870501C00D173E100985A
:10C1200005994318184619B0F0BD907A0099087027
:10C13000D07A4870107B8870507BC8700E321346DE
:10C14000184619B0F0BD00254B2306AE00973C46BB
:10C150002946049504E0059D0498401C0490B61CF3
:10C160000029059500D16D1C22781046019F3840AA
:10C17000641CC0280ED1002901D1681C0590100252
:10C18000029908402178401803990A5C0818441C59
:10C19000012100E00595002A00D1B7E0D04318182E
:10C1A00003B2002B00D52EE10325154009D02078DD
:10C1B0003070771C012D09D1641C551E042A19D238
:10C1C00026E015463746042A14D221E060787070C4
:10C1D000B01C022D06D1A41C951E3E460746042A1B
:10C1E00008D215E0A578B570F71CE41CD51E0646EC
:10C1F000042A0DD32078387060787870A078B870F1
:10C20000E078F8703F1D241D2D1F2804F2D17E1EFA
:10C210002E20387000299ED1059DAD189CE7907A9C
:10C220001018C17A0B304018431C184619B0F0BDE5
:10C230000C32002517464B2206AC00972946049580
:10C2400005E0019E059D0498401C0490A41C002953
:10C25000059500D16D1C3B78184630407F1CC028E6
:10C260000ED1002901D1681C0590180202990840DE
:10C270003978401803990B5C0818471C012100E02D
:10C280000595002B00D1B2E0D843101802B2002A65
:10C2900000D5B8E003251D4009D038782070661C11
:10C2A000012D09D17F1C5D1E042B19D226E01D46ED
:10C2B0002646042B14D221E078786070A01C022D51
:10C2C00006D1BF1C9D1E34460646042B08D215E03D
:10C2D000BD78A570E61CFF1CDD1E0446042B0DD3A3
:10C2E0003878307078787070B878B070F878F0700E
:10C2F000361D3F1D2D1F2804F2D1741E2E203070D4
:10C3000000299ED1059DED18019E9CE70498002808
:10C3100002D12E203070761C059900233370481C02
:10C32000009800D1ECE6441800254B2306A90094A0
:10C330002A46049504E0059D0498401C0490891C3D
:10C34000002A059500D16D1C26783046019F3840A3
:10C35000641CC0280ED1002A01D1681C059030024F
:10C36000029A104022788018039A165C1018441C18
:10C37000012200E00595002E4DD0F043181803B2BD
:10C38000002B40D40325354007D0207808704F1C7F
:10C39000012D05D1641C751E12E035460F460FE0D5
:10C3A00060784870881C022D04D1A41CB51E394643
:10C3B000074605E0A5788D70CF1CE41CF51E0146EC
:10C3C000042E0DD32078387060787870A078B8701B
:10C3D000E078F8703F1D241D2D1F2804F2D1791E2E
:10C3E0002E203870002AA6D1059DAD19A4E7049827
:10C3F000002802D12E202070641C05990020207096
:10C40000481C00D08BE60023184619B0F0BD3B460F
:10C41000184619B0F0BD0498002802D12E200870EB
:10C42000491C059A00230B70501C00D168E6009847
:10C4300083181433184619B0F0BDF0B59DB01546F9
:10C440000C460646122109F026F960782178090287
:10C4500008183080E0780594A278110209180BB210
:10C46000002B01D50123B3705206120FF2704A055A
:10C4700000D5AFE08A0500D5B1E0CA0500D5B3E02C
:10C48000090601D50121F1710F2108403072059C88
:10C4900060792179090209187181E079A279120283
:10C4A0001018B081627A237A1B029A18F281E27A1C
:10C4B000A37A1B029A1832820C34002900D199E029
:10C4C000019500231A4621460296069303924B27B4
:10C4D0000AAD04911C460993089305E0079C08984F
:10C4E000401C08909D1C069B0998002801D02046FE
:10C4F00000E0601C0E78C0223240491CC02A10D1D6
:10C50000099A002A00D1441C0878B106890C081841
:10C5100005990E5C0818411C01200990002E03D1DA
:10C5200041E00446002E3ED0F043381807B2002FF9
:10C5300075D403233340079408D008782870681C0A
:10C54000012B05D1491C741E2B4612E0344611E024
:10C550004A786A70AA1C022B05D1891CB41E0346B6
:10C560001046154606E08878A870E81CC91CF41E21
:10C5700013460546042E0ED3087828704878687054
:10C580008878A870C878E8702D1D091D241F200424
:10C59000F2D16B1E28462E220270099800289DD1E8
:10C5A000079CA4199BE70898002802D12E20287028
:10C5B0006D1C00202870601C31D004980019011DEA
:10C5C000039A521C029E7089824200D27EE7B08993
:10C5D000019D10E0012232718A0500D44DE701224D
:10C5E0007271CA0500D44BE70122B271090600D569
:10C5F00048E749E7214600280BD0002405982A4641
:10C60000FFF76EFC00280AD00146641CB089844202
:10C61000F4D3317A4842484140B21DB0F0BDFF200A
:10C6200040B21DB0F0BDC046F0B597B015462E4BD8
:10C630005A88521C5A800023AB71012400946C71FB
:10C640002B71EB712B726B72AB72EB720293EB700E
:10C65000C000401CA8706A70100A287004AE3046F2
:10C6600008F018FF08F03CFF04462E21304608F081
:10C67000C5FE00280394214600D0811B2973444243
:10C6800044418FB228460D30002F019520D004AED2
:10C6900006E02970444244418FB2681C002F17D035
:10C6A00031463A4608F0FCFFC519E0070DD17C1C65
:10C6B00036192E21304608F0A1FE039989B2091BD4
:10C6C00000280391E5D0811BE3E702982870681CDD
:10C6D000009AC27002998170427001700199401AEB
:10C6E000001D00B217B0F0BDB80300200C49486827
:10C6F00003280AD3002048600A78012A034607D994
:10C700000B70012A08D840B27047012040B2704730
:10C71000531C0B70012AF6D9C04340B27047C04683
:10C72000B8030020024A9160507002485080704760
:10C73000B803002022110000F0B58BB002920F4622
:10C740000646334C6078022100252A462B46FCF72A
:10C7500017F9A268284639462B46FFF765FFA168FE
:10C7600063783527009782B2184601963346FCF766
:10C7700093FC607886042749725893B2002B18D036
:10C78000A16804AD009501252D02AB4200D81546E5
:10C79000AAB2C0B205ABFCF737FDA16806A8029AA1
:10C7A000FFF74BFE05466078FCF788F928460BB08A
:10C7B000F0BD0397019B616802291ED91E46154FE3
:10C7C00005E0C2B29204D25993B2002BD8D103290A
:10C7D000F7D36560217801292B4600D84B1C2370C4
:10C7E0000129E3D8A168039B0093C0B292B23346FB
:10C7F000FCF752FC60786168E3E70649725893B22F
:10C80000002BBDD1725893B2002BF7D0B8E7C046C9
:10C81000B80300202402014602484168491C4160D7
:10C820007047C046B8030020F0B504780021002C02
:10C830000A4637D000231A4609E0573D2E46240108
:10C84000341984545B1CC45C521C002C2AD08454C0
:10C85000252CF7D11C1865782C46303CE6B20A2E00
:10C860000DD32C46613CE4B2052C01D8573D05E0C0
:10C870002C46413CE4B2062C00D2373D2C469B1C92
:10C88000C55C2E46303EF7B20A2FD8D32E46613E05
:10C89000F6B2052ED1D92E46413EF6B2062ECDD2A5
:10C8A000373DCBE78154F0BD70B584B00446481ED7
:10C8B000C0B2172803D880000C490D5800E00025AD
:10C8C00001AE0BA1304608F01FFB2046294608F0B8
:10C8D000E1FD314608F076FE08F002FE2018054919
:10C8E000052208F07BFE04B070BDC046EC68010074
:10C8F000256C64006A9C010070B50D46044673A166
:10C90000284608F085FD0126002801D0267070BD5C
:10C9100070A1284608F07CFD0028F7D16FA12846B9
:10C9200008F076FD002802D00226267070BD6DA1A9
:10C93000284608F06DFD03260028E7D16BA12846A4
:10C9400008F066FD0028E1D16AA1284608F060FDE4
:10C9500004260028DAD169A1284608F059FD0028EC
:10C96000D4D168A1284608F053FD002802D005263E
:10C97000267070BD65A1284608F04AFD08260028EB
:10C98000C4D164A1284608F043FD0028BED163A1AC
:10C99000284608F03DFD0C260028B7D161A12846A5
:10C9A00008F036FD0028B1D160A1284608F030FD1E
:10C9B0000B260028AAD15EA1284608F029FD0028F0
:10C9C000A4D15CA1284608F023FD092600289DD1AA
:10C9D0005AA1284608F01CFD002897D159A12846E5
:10C9E00008F016FD0A26002890D158A1284608F024
:10C9F0000FFD00288AD157A1284608F009FD0D2611
:10CA0000002883D155A1284608F002FD002800D057
:10CA10007CE754A1284608F0FBFC0E26002800D035
:10CA200074E752A1284608F0F3FC002800D06DE717
:10CA300050A1284608F0ECFC1426002800D065E739
:10CA40004EA1284608F0E4FC002800D05EE74DA186
:10CA5000284608F0DDFC1526002800D056E74BA13B
:10CA6000284608F0D5FC002800D04FE749A1284609
:10CA700008F0CEFC1626002800D047E747A128463C
:10CA800008F0C6FC002800D040E746A1284608F080
:10CA9000BFFC1726002800D038E744A1284608F03C
:10CAA000B7FC002800D031E742A1284608F0B0FCCE
:10CAB000002808D141A1284608F0AAFC002802D18C
:10CAC0000646267070BD1826267070BD2E68746DDF
:10CAD000000000002E68746D6C0000002E6769660F
